:100000000C942A000C9447000C9447000C94470071
:100010000C9447000C9447000C9447000C94470044
:100020000C9447000C9447000C94230A0C94F0099C
:100030000C9447000C9447000C9447000C94470024
:100040000C9447000C9447000C9447000C94470014
:100050000C94470011241FBECFE5D4E0DEBFCDBF16
:1000600013E0A0E6B0E0E0E5F3E202C005900D92F7
:10007000A435B107D9F713E0A4E5B3E001C01D92A0
:10008000A635B107E1F70E945A110C94A6110C9401
:100090000000EF92FF920F931F937B018C0120E0F1
:1000A00030E040E05FE40E94F50388238CF0C80153
:1000B000B70120E030E040E05FE40E94C1010E940F
:1000C00055049B01AC01205030404040504806C0D0
:1000D000C801B7010E9455049B01AC01B901CA01D6
:1000E0001F910F91FF90EF900895A0E0B0E0EBE733
:1000F000F0E00C946F11DC012B01FA019C9192301D
:1001000008F439C1EB018881823008F433C194309E
:1001100069F4843009F02FC111969C91119789815F
:10012000981709F428C1ABE6B0E025C1843009F482
:1001300021C18230A9F4923009F01DC19A01AD01AC
:1001400088E0EA010990AE01E90109929E0181501F
:10015000C1F7E201898111969C918923818308C1AD
:10016000923009F407C112962D903C901397EB0141
:100170008A819B811496AD90BD90CD90DC901797AD
:10018000EC80FD800E811F819101281B390BB90184
:1001900037FF04C066277727621B730B6032710537
:1001A0000CF061C0121613066CF537014801062EDB
:1001B00004C096948794779467940A94D2F721E0C8
:1001C00030E040E050E004C0220F331F441F551FB1
:1001D0006A95D2F721503040404050402E213F21B7
:1001E00040235123211531054105510521F021E01E
:1001F00030E040E050E079018A01E628F72808293C
:1002000019293CC0232BD1F1260E371E350146019A
:10021000062E04C096948794779467940A94D2F734
:1002200021E030E040E050E004C0220F331F441FC3
:10023000551F6A95D2F721503040404050402A2146
:100240003B214C215D21211531054105510521F04E
:1002500021E030E040E050E059016A01A628B728CB
:10026000C828D9280BC0821593052CF01C01AA249C
:10027000BB24650103C0EE24FF24870111969C91E5
:10028000D20111968C91981709F445C0992339F041
:10029000A80197012A193B094C095D0906C0A6016E
:1002A00095012E193F09400B510B57FD08C01182D3
:1002B0003382228224833583468357831DC081E0A5
:1002C00081833382228288279927DC01821B930B4A
:1002D000A40BB50B84839583A683B7830DC0220F2F
:1002E000331F441F551F24833583468357838281E0
:1002F000938101979383828324813581468157813D
:10030000DA01C9010197A109B1098F5F9F4FAF4F72
:10031000BF4328F30BC0918333822282EA0CFB1C7B
:100320000C1D1D1DE482F5820683178383E0808304
:10033000248135814681578157FF1AC0C901AA27F8
:1003400097FDA095BA2F81709070A070B0705695EF
:10035000479537952795822B932BA42BB52B848318
:100360009583A683B7838281938101969383828349
:10037000DF0101C0D201CD01CDB7DEB7E2E10C94BF
:100380008B11A0E2B0E0E7ECF1E00C947B11698303
:100390007A838B839C832D833E834F835887E9E048
:1003A000EE2EF12CEC0EFD1ECE010196B7010E943F
:1003B00046068E010F5E1F4FCE010596B8010E94C2
:1003C00046068A8991E089278A8BC701B801AE0168
:1003D000475E5F4F0E9475000E947105A096E6E09F
:1003E0000C949711A0E2B0E0E8EFF1E00C947B11DF
:1003F00069837A838B839C832D833E834F835887C5
:10040000F9E0EF2EF12CEC0EFD1ECE010196B701A6
:100410000E9446068E010F5E1F4FCE010596B80161
:100420000E944606C701B801AE01475E5F4F0E94B9
:1004300075000E947105A096E6E00C949711A0E269
:10044000B0E0E5E2F2E00C946F1169837A838B836C
:100450009C832D833E834F835887CE010196BE0136
:10046000675F7F4F0E944606CE010596BE016F5E14
:100470007F4F0E9446069985923088F089898230A4
:10048000C8F0943019F4823051F404C0843029F457
:10049000923081F48BE690E0C6C0923049F420E0BF
:1004A0009A858A89981321E02A87CE010996BBC0D4
:1004B000823049F420E09A858A89981321E02A8BBA
:1004C000CE014196B0C02D843E844F8458886D88FB
:1004D0007E888F88988CEE24FF248701AA24BB2471
:1004E000650140E050E060E070E0E0E0F0E0C10174
:1004F00081709070892BE9F0E60CF71C081D191D1E
:100500009A01AB012A0D3B1D4C1D5D1D80E090E062
:10051000A0E0B0E0E614F7040805190520F481E036
:1005200090E0A0E0B0E0BA01A901480F591F6A1F8E
:100530007B1FAA0CBB1CCC1CDD1C97FE08C081E0F5
:1005400090E0A0E0B0E0A82AB92ACA2ADB2A3196B6
:10055000E032F10549F0660C771C881C991C569412
:10056000479437942794C3CFFA85EA892B893C892D
:100570008B859C85280F391F2E5F3F4F17C0CA01FE
:1005800081709070892B61F016950795F794E79428
:1005900080E090E0A0E0B0E8E82AF92A0A2B1B2BC3
:1005A00076956795579547952F5F3F4F77FDE7CF36
:1005B0000CC0440F551F661F771F17FD4160EE0CDE
:1005C000FF1C001F111F21503040403090E05907A0
:1005D00090E0690790E4790760F32B8F3C8FDB0193
:1005E000CA018F779070A070B07080349105A1051A
:1005F000B10561F447FD0AC0E114F10401051105DC
:1006000029F0405C5F4F6F4F7F4F40781A8EFE1786
:1006100011F081E08A8F4D8F5E8F6F8F78A383E01A
:10062000898FCE0149960E947105A096E2E10C9453
:100630008B11A8E1B0E0EFE1F3E00C94771169834E
:100640007A838B839C832D833E834F835887B9E0C5
:10065000EB2EF12CEC0EFD1ECE010196B7010E948F
:1006600046068E010F5E1F4FCE010596B8010E940F
:1006700046062985223008F47EC03989323010F4CC
:10068000B8017CC08A859A8989278A87243011F02D
:10069000223031F4231709F06EC06BE670E06EC0B3
:1006A000343039F41D861E861F86188A1C861B86E8
:1006B00004C0323021F484E08987B7015FC02B8504
:1006C0003C858B899C89281B390B3C872B87ED84C3
:1006D000FE840F851889AD88BE88CF88D88CEA142F
:1006E000FB040C051D0540F4EE0CFF1C001F111F40
:1006F000215030403C872B8720E030E040E050E044
:1007000080E090E0A0E0B0E460E070E0EA14FB0478
:100710000C051D0540F0282B392B4A2B5B2BEA18C2
:10072000FB080C091D09B695A79597958795EE0CC2
:10073000FF1C001F111F6F5F7F4F6F31710531F775
:10074000DA01C9018F779070A070B0708034910584
:10075000A105B10561F427FD0AC0E114F10401050A
:10076000110529F0205C3F4F4F4F5F4F20782D87B8
:100770003E874F87588BBE01675F7F4FCB010E943A
:1007800071056896EAE00C949311A8E1B0E0EBECF7
:10079000F3E00C947B1169837A838B839C832D8394
:1007A0003E834F83588789E0E82EF12CEC0EFD1E26
:1007B000CE010196B7010E9446068E010F5E1F4FC3
:1007C000CE010596B8010E9446068985823040F028
:1007D0008989823028F0C701B8010E94BE0601C095
:1007E0008FEF6896E6E00C949711A8E1B0E0EBEF8C
:1007F000F3E00C947B1169837A838B839C832D8334
:100800003E834F83588789E0E82EF12CEC0EFD1EC5
:10081000CE010196B7010E9446068E010F5E1F4F62
:10082000CE010596B8010E9446068985823040F0C7
:100830008989823028F0C701B8010E94BE0601C034
:100840008FEF6896E6E00C949711A8E1B0E0EBE238
:10085000F4E00C947B1169837A838B839C832D83D2
:100860003E834F83588789E0E82EF12CEC0EFD1E65
:10087000CE010196B7010E9446068E010F5E1F4F02
:10088000CE010596B8010E9446068985823040F067
:100890008989823028F0C701B8010E94BE0601C0D4
:1008A00081E06896E6E00C949711ACE0B0E0EBE5EF
:1008B000F4E00C947F1169837A838B839C83CE014F
:1008C0000196BE016B5F7F4F0E9446068D8182308C
:1008D00061F1823050F1843021F48E81882351F10E
:1008E0002EC02F81388537FD20C06E812F31310514
:1008F0001CF06623F9F023C08EE190E0821B930B7D
:1009000029853A854B855C8504C056954795379572
:1009100027958A95D2F76623B1F05095409530958A
:1009200021953F4F4F4F5F4F0EC020E030E040E039
:1009300050E009C02FEF3FEF4FEF5FE704C020E02A
:1009400030E040E050E8B901CA012C96E2E00C9496
:100950009B11A8E0B0E0EFEAF4E00C9477117B0182
:100960008C01611571058105910519F482E0898377
:1009700060C083E089838EE1C82ED12CDC82CB82DB
:10098000ED82FE820F831887C801B7010E942205FD
:10099000FC013197F7FF3BC0222733272E1B3F0B6B
:1009A00057016801022E04C0D694C794B794A79447
:1009B0000A94D2F740E050E060E070E081E090E01F
:1009C000A0E0B0E004C0880F991FAA1FBB1F2A95A2
:1009D000D2F70197A109B1098E219F21A023B1234C
:1009E0000097A105B10521F041E050E060E070E022
:1009F0004A295B296C297D294D835E836F83788723
:100A00008EE190E08E1B9F0B9C838B8312C03097EE
:100A100081F00E2E04C0EE0CFF1C001F111F0A9463
:100A2000D2F7ED82FE820F831887CE1ADF0ADC82AE
:100A3000CB821A82CE0101960E9471052896EAE0C7
:100A40000C949311EF92FF920F931F937B018C01F3
:100A500080E0E81680E0F80681E0080780E01807EB
:100A600088F48FEFE816F1040105110531F028F044
:100A700088E090E0A0E0B0E017C080E090E0A0E067
:100A8000B0E012C080E0E81680E0F80680E00807D9
:100A900081E0180728F088E190E0A0E0B0E004C011
:100AA00080E190E0A0E0B0E020E230E040E050E003
:100AB000281B390B4A0B5B0B04C016950795F7945E
:100AC000E7948A95D2F7F701ED58FF4F8081281BF4
:100AD000310941095109C9011F910F91FF90EF9010
:100AE0000895DF92EF92FF920F931F93FC01E48031
:100AF000F58006811781D1808081823048F480E0C2
:100B000090E0A0E1B0E0E82AF92A0A2B1B2BA5C04F
:100B1000843009F49FC0823021F4EE24FF24870141
:100B200005C0E114F1040105110519F4E0E0F0E05D
:100B300096C0628173819FEF623879070CF05BC0C9
:100B400022E83FEF261B370B2A3131052CF020E03D
:100B500030E040E050E02AC0B801A701022E04C0F6
:100B600076956795579547950A94D2F781E090E07E
:100B7000A0E0B0E004C0880F991FAA1FBB1F2A95F0
:100B8000D2F70197A109B1098E219F21A023B1239A
:100B90000097A105B10521F081E090E0A0E0B0E070
:100BA0009A01AB01282B392B4A2B5B2BDA01C901A7
:100BB0008F779070A070B07080349105A105B10559
:100BC00039F427FF09C0205C3F4F4F4F5F4F04C0EF
:100BD000215C3F4F4F4F5F4FE0E0F0E02030A0E05E
:100BE0003A07A0E04A07A0E45A0710F0E1E0F0E07D
:100BF00079018A0127C06038710564F5FB01E1586D
:100C0000FF4FD801C7018F779070A070B07080340B
:100C10009105A105B10539F4E7FE0DC080E490E02F
:100C2000A0E0B0E004C08FE390E0A0E0B0E0E80E08
:100C3000F91E0A1F1B1F17FF05C016950795F7948D
:100C4000E794319687E016950795F794E7948A958F
:100C5000D1F705C0EE24FF248701EFEFF0E06E2FFF
:100C6000679566276795902F9F77D794DD24D79453
:100C70008E2F8695492F462B582F5D29B701CA0123
:100C80001F910F91FF90EF90DF900895FC01DB0121
:100C9000408151812281622F6F7770E0221F2227CD
:100CA000221F9381892F880F822B282F30E0991FD4
:100CB0009927991F11969C93119721153105A9F534
:100CC000411551056105710511F482E037C082E8D4
:100CD0009FEF13969C938E9312979A01AB0167E056
:100CE000220F331F441F551F6A95D1F783E08C9361
:100CF0000DC0220F331F441F551F12968D919C91DA
:100D00001397019713969C938E931297203080E04F
:100D1000380780E0480780E4580758F314962D936D
:100D20003D934D935C93179708952F3F310579F4C8
:100D3000411551056105710519F484E08C930895FE
:100D400064FF03C081E08C9312C01C9210C02F5727
:100D5000304013963C932E93129783E08C9387E058
:100D6000440F551F661F771F8A95D1F7706414963C
:100D70004D935D936D937C93179708951F93DC01BA
:100D8000FB019C91923008F447C08081823008F4C6
:100D900043C0943051F411961C91843099F58181AF
:100DA000682F70E0611B71093FC0843021F09230E0
:100DB00031F48230B9F18181882389F12DC01196F7
:100DC0001C9111978230F1F081811817D9F4129695
:100DD0002D913C911397828193818217930794F010
:100DE00028173907BCF014968D919D910D90BC91F8
:100DF000A02D2481358146815781281739074A075C
:100E00005B0718F4112341F00AC082179307A40767
:100E1000B50740F4112319F061E070E005C06FEFF1
:100E20007FEF02C060E070E0CB011F910895DF9377
:100E3000CF9300D000D000D0CDB7DEB78A836B83CC
:100E40004C8319828B81883008F0B1C08C8182304C
:100E500008F0ADC08A81282F30E03E832D836D815C
:100E60007E8161307105D1F18D819E818230910545
:100E700034F42D813E812115310571F095C06D81CD
:100E80007E816230710509F44BC08D819E81833073
:100E9000910509F467C088C0ABE3B0E0EBE3F0E094
:100EA0008081482F8B81282F30E081E090E002C0C4
:100EB000880F991F2A95E2F7809548238C81282F67
:100EC00030E08B81882F90E0B90102C0660F771F58
:100ED0008A95E2F7CB01842B8C936BC0A8E3B0E03A
:100EE000E8E3F0E08081482F8B81282F30E081E01B
:100EF00090E002C0880F991F2A95E2F78095482359
:100F00008C81282F30E08B81882F90E0B90102C0BE
:100F1000660F771F8A95E2F7CB01842B8C9349C02B
:100F2000A5E3B0E0E5E3F0E08081482F8B81282F36
:100F300030E081E090E002C0880F991F2A95E2F727
:100F4000809548238C81282F30E08B81882F90E07A
:100F5000B90102C0660F771F8A95E2F7CB01842B97
:100F60008C9327C0A2E3B0E0E2E3F0E08081482F59
:100F70008B81282F30E081E090E002C0880F991F1C
:100F80002A95E2F7809548238C81282F30E08B81C9
:100F9000882F90E0B90102C0660F771F8A95E2F7AB
:100FA000CB01842B8C9305C081E0898302C081E052
:100FB0008983898126960FB6F894DEBF0FBECDBF18
:100FC000CF91DF910895DF93CF9300D000D00F929F
:100FD000CDB7DEB78A836B8319828A81282F30E0F0
:100FE0003D832C838C819D8181309105D1F02C81B2
:100FF0003D81223031052CF48C819D81009761F078
:101000001FC02C813D812230310581F08C819D8172
:101010008330910581F014C0EBE3F0E08B81808395
:1010200011C0E8E3F0E08B8180830CC0E5E3F0E0E1
:101030008B81808307C0E2E3F0E08B81808302C074
:1010400081E0898389810F900F900F900F900F900E
:10105000CF91DF910895DF93CF93CDB7DEB7279778
:101060000FB6F894DEBF0FBECDBF8A836B835D835E
:101070004C8319828C819D81009709F47BC08B8100
:10108000883008F074C08A81282F30E03F832E8397
:101090004E815F814130510559F18E819F818230AF
:1010A000910534F42E813F812115310569F05CC032
:1010B0004E815F814230510579F18E819F8183306D
:1010C000910509F43DC050C0E9E3F0E08081282F8C
:1010D00030E08B81882F90E0A90102C0559547959B
:1010E0008A95E2F7CA018170EC81FD81808344C05A
:1010F000E6E3F0E08081282F30E08B81882F90E0BC
:10110000A90102C0559547958A95E2F7CA018170F9
:10111000EC81FD81808330C0E3E3F0E08081282F03
:1011200030E08B81882F90E0A90102C0559547954A
:101130008A95E2F7CA018170EC81FD8180831CC031
:10114000E0E3F0E08081282F30E08B81882F90E071
:10115000A90102C0559547958A95E2F7CA018170A9
:10116000EC81FD81808308C081E0898305C081E036
:10117000898302C082E08983898127960FB6F8941B
:10118000DEBF0FBECDBFCF91DF910895DF93CF9328
:1011900000D000D00F92CDB7DEB78A836B8319825F
:1011A0008B81883008F072C08A81282F30E03D831F
:1011B0002C838C819D818130910549F12C813D8169
:1011C000223031052CF48C819D81009761F05BC049
:1011D0002C813D812230310571F18C819D818330DC
:1011E0009105E9F150C0ABE3B0E0EBE3F0E08081C2
:1011F000482F8B81282F30E081E090E0022E02C042
:10120000880F991F0A94E2F784278C9341C0A8E3C2
:10121000B0E0E8E3F0E08081482F8B81282F30E0B8
:1012200081E090E0022E02C0880F991F0A94E2F735
:1012300084278C932DC0A5E3B0E0E5E3F0E0808146
:10124000482F8B81282F30E081E090E0022E02C0F1
:10125000880F991F0A94E2F784278C9319C0A2E3A0
:10126000B0E0E2E3F0E08081482F8B81282F30E06E
:1012700081E090E0022E02C0880F991F0A94E2F7E5
:1012800084278C9305C081E0898302C081E0898333
:1012900089810F900F900F900F900F90CF91DF9159
:1012A0000895DF93CF93CDB7DEB77894CF91DF91D8
:1012B0000895DF93CF93CDB7DEB7F894CF91DF9148
:1012C0000895DF93CF93CDB7DEB7EAE3F0E08FEF79
:1012D0008083E7E3F0E08EE08083E4E3F0E01082D7
:1012E000E1E3F0E01082EBE3F0E01082E8E3F0E00D
:1012F0001082E5E3F0E01082E2E3F0E01082CF91AB
:10130000DF910895DF93CF93CDB7DEB7A3E5B0E0CB
:10131000E3E5F0E080818F7B8C93A3E5B0E0E3E52B
:10132000F0E08081877F8C93A3E5B0E0E3E5F0E017
:1013300080818F7E8C93A3E5B0E0E3E5F0E08081CF
:101340008F7D8C93A3E5B0E0E3E5F0E080818160E0
:101350008C93A3E5B0E0E3E5F0E0808182608C93BC
:10136000A3E5B0E0E3E5F0E080818B7F8C93A9E515
:10137000B0E0E9E5F0E0808182608C93ECE5F0E09C
:101380008AEF8083CF91DF910895DF93CF9300D0D0
:101390000F92CDB7DEB79B838A8319828A819B81A6
:1013A000009739F08A819B81909355038093540371
:1013B00002C082E0898389810F900F900F90CF91B6
:1013C000DF910895DF93CF930F92CDB7DEB7898376
:1013D000E2E5F0E0898180830F90CF91DF9108955D
:1013E0001F920F920FB60F9211242F933F934F939A
:1013F0005F936F937F938F939F93AF93BF93EF937D
:10140000FF93DF93CF93CDB7DEB7809154039091D4
:101410005503009729F0E0915403F0915503099585
:10142000CF91DF91FF91EF91BF91AF919F918F91FC
:101430007F916F915F914F913F912F910F900FBED0
:101440000F901F9018951F920F920FB60F921124B4
:101450002F933F934F935F936F937F938F939F93BC
:10146000AF93BF93EF93FF93DF93CF93CDB7DEB7E7
:101470008091540390915503009729F0E091540313
:10148000F09155030995CF91DF91FF91EF91BF91B5
:10149000AF919F918F917F916F915F914F913F910C
:1014A0002F910F900FBE0F901F901895DF93CF9341
:1014B000CDB7DEB7E1970FB6F894DEBF0FBECDBF54
:1014C00089ABEBE3F0E089A98083A5E3B0E0E5E335
:1014D000F0E080818E7F8C93A5E3B0E0E5E3F0E05F
:1014E00080818D7F8C93A5E3B0E0E5E3F0E080811F
:1014F00084608C9380E090E0A0EAB0E48DA79EA782
:10150000AFA7B8AB6DA57EA58FA598A92BEA3AEA3F
:101510004AE250E40E941F02DC01CB0189A79AA78E
:10152000ABA7BCA769A57AA58BA59CA520E030E058
:1015300040E85FE30E94250488231CF481E088A72B
:1015400091C069A57AA58BA59CA520E030E04FE766
:1015500053E40E94C50318160CF07BC06DA57EA550
:101560008FA598A920E030E04AE754E40E941903CF
:10157000DC01CB018CA39DA3AEA3BFA36CA17DA175
:101580008EA19FA120E030E04AEF54E40E941F02A8
:10159000DC01CB0188A399A3AAA3BBA368A179A16D
:1015A0008AA19BA120E030E040E85FE30E9425048F
:1015B00088232CF481E090E09F8F8E8F3FC068A13C
:1015C00079A18AA19BA120E03FEF4FE757E40E9459
:1015D000C50318164CF56CA17DA18EA19FA120E03A
:1015E00030E040E251E40E941F02DC01CB01BC016B
:1015F000CD010E944900DC01CB019F8F8E8F0FC06F
:1016000088EC90E09D8F8C8F8C8D9D8D0197F1F7EC
:101610009D8F8C8F8E8D9F8D01979F8F8E8F8E8D3E
:101620009F8D009769F724C068A179A18AA19BA129
:101630000E944900DC01CB019F8F8E8F8E8D9F8D84
:101640009B8F8A8F8A8D9B8D0197F1F79B8F8A8F55
:101650000FC069A57AA58BA59CA50E944900DC0155
:10166000CB0188A788A5898F898D8A95F1F7898F05
:10167000A5E3B0E0E5E3F0E080818B7F8C9380E030
:1016800090E0A0EAB0E48D8B9E8BAF8BB88F6D8914
:101690007E898F89988D2BEA3AEA4AE250E40E94CB
:1016A0001F02DC01CB01898B9A8BAB8BBC8B6989C8
:1016B0007A898B899C8920E030E040E85FE30E94D2
:1016C000250488231CF481E0888B91C069897A897C
:1016D0008B899C8920E030E04FE753E40E94C503EA
:1016E00018160CF07BC06D897E898F89988D20E05B
:1016F00030E04AE754E40E941903DC01CB018C87F7
:101700009D87AE87BF876C857D858E859F8520E010
:1017100030E04AEF54E40E941F02DC01CB018887CD
:101720009987AA87BB87688579858A859B8520E00C
:1017300030E040E85FE30E94250488232CF481E038
:1017400090E09F838E833FC0688579858A859B85DD
:1017500020E03FEF4FE757E40E94C50318164CF511
:101760006C857D858E859F8520E030E040E251E4E8
:101770000E941F02DC01CB01BC01CD010E94490087
:10178000DC01CB019F838E830FC088EC90E09D83AA
:101790008C838C819D810197F1F79D838C838E8151
:1017A0009F8101979F838E838E819F81009769F728
:1017B00024C0688579858A859B850E944900DC0163
:1017C000CB019F838E838E819F819B838A838A81B5
:1017D0009B810197F1F79B838A830FC069897A897E
:1017E0008B899C890E944900DC01CB01888B888908
:1017F000898389818A95F1F78983E1960FB6F894F8
:10180000DEBF0FBECDBFCF91DF910895DF93CF93A1
:10181000CDB7DEB7E1970FB6F894DEBF0FBECDBFF0
:1018200089ABEBE3F0E089A98083A5E3B0E0E5E3D1
:10183000F0E0808181608C93A5E3B0E0E5E3F0E027
:1018400080818D7F8C93A5E3B0E0E5E3F0E08081BB
:1018500084608C9380E090E0A0EAB0E48DA79EA71E
:10186000AFA7B8AB6DA57EA58FA598A92BEA3AEADC
:101870004AE250E40E941F02DC01CB0189A79AA72B
:10188000ABA7BCA769A57AA58BA59CA520E030E0F5
:1018900040E85FE30E94250488231CF481E088A7C8
:1018A00091C069A57AA58BA59CA520E030E04FE703
:1018B00053E40E94C50318160CF07BC06DA57EA5ED
:1018C0008FA598A920E030E04AE754E40E9419036C
:1018D000DC01CB018CA39DA3AEA3BFA36CA17DA112
:1018E0008EA19FA120E030E04AEF54E40E941F0245
:1018F000DC01CB0188A399A3AAA3BBA368A179A10A
:101900008AA19BA120E030E040E85FE30E9425042B
:1019100088232CF481E090E09F8F8E8F3FC068A1D8
:1019200079A18AA19BA120E03FEF4FE757E40E94F5
:10193000C50318164CF56CA17DA18EA19FA120E0D6
:1019400030E040E251E40E941F02DC01CB01BC0107
:10195000CD010E944900DC01CB019F8F8E8F0FC00B
:1019600088EC90E09D8F8C8F8C8D9D8D0197F1F789
:101970009D8F8C8F8E8D9F8D01979F8F8E8F8E8DDB
:101980009F8D009769F724C068A179A18AA19BA1C6
:101990000E944900DC01CB019F8F8E8F8E8D9F8D21
:1019A0009B8F8A8F8A8D9B8D0197F1F79B8F8A8FF2
:1019B0000FC069A57AA58BA59CA50E944900DC01F2
:1019C000CB0188A788A5898F898D8A95F1F7898FA2
:1019D000A5E3B0E0E5E3F0E080818B7F8C9380E0CD
:1019E00090E0A0EAB0E48D8B9E8BAF8BB88F6D89B1
:1019F0007E898F89988D2BEA3AEA4AE250E40E9468
:101A00001F02DC01CB01898B9A8BAB8BBC8B698964
:101A10007A898B899C8920E030E040E85FE30E946E
:101A2000250488231CF481E0888B91C069897A8918
:101A30008B899C8920E030E04FE753E40E94C50386
:101A400018160CF07BC06D897E898F89988D20E0F7
:101A500030E04AE754E40E941903DC01CB018C8793
:101A60009D87AE87BF876C857D858E859F8520E0AD
:101A700030E04AEF54E40E941F02DC01CB0188876A
:101A80009987AA87BB87688579858A859B8520E0A9
:101A900030E040E85FE30E94250488232CF481E0D5
:101AA00090E09F838E833FC0688579858A859B857A
:101AB00020E03FEF4FE757E40E94C50318164CF5AE
:101AC0006C857D858E859F8520E030E040E251E485
:101AD0000E941F02DC01CB01BC01CD010E94490024
:101AE000DC01CB019F838E830FC088EC90E09D8347
:101AF0008C838C819D810197F1F79D838C838E81EE
:101B00009F8101979F838E838E819F81009769F7C4
:101B100024C0688579858A859B850E944900DC01FF
:101B2000CB019F838E838E819F819B838A838A8151
:101B30009B810197F1F79B838A830FC069897A891A
:101B40008B899C890E944900DC01CB01888B8889A4
:101B5000898389818A95F1F78983E1960FB6F89494
:101B6000DEBF0FBECDBFCF91DF910895DF93CF933E
:101B7000CDB7DEB72E970FB6F894DEBF0FBECDBF40
:101B8000EAE3F0E08FEF8083E4E3F0E08FEF80831F
:101B9000A5E3B0E0E5E3F0E0808188638C9380E02A
:101BA00090E0A0EAB1E48B879C87AD87BE876B8508
:101BB0007C858D859E8520E030E04AEF54E40E94CC
:101BC0001F02DC01CB018F839887A987BA876F81B9
:101BD000788589859A8520E030E040E85FE30E94BF
:101BE000250488232CF481E090E09E838D833FC000
:101BF0006F81788589859A8520E03FEF4FE757E42C
:101C00000E94C50318164CF56B857C858D859E85D5
:101C100020E030E040E251E40E941F02DC01CB01F1
:101C2000BC01CD010E944900DC01CB019E838D8364
:101C30000FC088EC90E09C838B838B819C81019703
:101C4000F1F79C838B838D819E8101979E838D8389
:101C50008D819E81009769F714C06F817885898591
:101C60009A850E944900DC01CB019E838D838D8182
:101C70009E819A83898389819A810197F1F79A835A
:101C800089838EE30E94560A80E40E94560A88EBFC
:101C90000E94560A89EB0E94560A8DEB0E94560A52
:101CA00080EC0E94560A8FE30E94560A2E960FB6C9
:101CB000F894DEBF0FBECDBFCF91DF910895DF93C3
:101CC000CF9300D000D0CDB7DEB7A5E3B0E0E5E319
:101CD000F0E0808188618C931C821B8219C08B810B
:101CE00088540E94560A1A82198208C080E00E9415
:101CF000060C89819A8101969A83898389819A81C8
:101D0000803491059CF38B819C8101969C838B830D
:101D10008B819C818830910514F380E40E94560ADF
:101D200088EB0E94560A0F900F900F900F90CF9162
:101D3000DF9108950F931F93DF93CF93CDB7DEB755
:101D40002F970FB6F894DEBF0FBECDBF8D877F876C
:101D50006E878D85882F90E088549F4F98878F835A
:101D60001E821D8280E090E0A0E0BFE389839A8319
:101D7000AB83BC83A5E3B0E0E5E3F0E0808188605D
:101D80008C93A5E3B0E0E5E3F0E080818F7E8C9357
:101D9000A5E3B0E0E5E3F0E0808180618C93A5E30A
:101DA000B0E0E5E3F0E08081877F8C938F810E9433
:101DB000560A1C861B8665C28D85882F90E09695F5
:101DC000982F882797958795909581959F4F855057
:101DD0009C4F9C018D819E812817390708F45CC2B5
:101DE0002E853F858B859C85F901E80FF91F808141
:101DF000803209F4CFC081E090E09A878987C4C01F
:101E00002D813E8189859A858901080F191F698175
:101E10007A818B819C8120E030E040E05FE30E948A
:101E2000F201DC01CB01BC01CD010E945504DC01B3
:101E3000CB019695982F88279795879508171907AE
:101E400009F04FC089859A858530910509F4A2C0B3
:101E500080E40E94560A2D813E8189859A85820FF1
:101E6000931F9E838D83A5E3B0E0E5E3F0E09081CE
:101E700088E089278C93A5E3B0E0E5E3F0E090816A
:101E800080E189278C938F819885CC01A0E0B0E018
:101E9000BC01CD010E94A904DC01CB01BC01CD0134
:101EA00029813A814B815C810E94F201DC01CB01E6
:101EB000BC01CD010E944900DC01CB010E94560A01
:101EC00069817A818B819C8120E030E040E05FE392
:101ED0000E94F201DC01CB0189839A83AB83BC832E
:101EE0004EC089859A858530910509F453C080E4F8
:101EF0000E94560A2D813E8189859A85820F931F03
:101F00009E838D83A5E3B0E0E5E3F0E0908180E17E
:101F100089278C93A5E3B0E0E5E3F0E0908188E0C9
:101F200089278C938F819885CC01A0E0B0E0BC011B
:101F3000CD010E94A904DC01CB01BC01CD012981A6
:101F40003A814B815C810E94F201DC01CB01BC0132
:101F5000CD010E944900DC01CB010E94560A698133
:101F60007A818B819C8120E030E040E05FE30E9439
:101F7000F201DC01CB0189839A83AB83BC83898521
:101F80009A8501969A87898789859A8586309105F1
:101F900008F436CF8D85882F90E09695982F882766
:101FA00097958795909581959F4F85509C4F9C0163
:101FB0008D819E812817390708F46EC12E853F85D3
:101FC0008B859C85F901E80FF91F8081282F30E06F
:101FD000C901880F991F820F931F880F991F880FBF
:101FE000991F880F991F820F931F8C5093408D5813
:101FF0009E4F009759F02E853F858B859C85F90172
:10200000E80FF91F8081803209F076C01A861986A0
:102010006CC02E853F858B859C85F901E80FF91FE3
:102020008081882F90E09C012052304049855A855C
:10203000C901880F991F880F991F820F931F840F62
:10204000951FFC01ED58FE4F80810E94060C8D818A
:102050009E8101968F7390700097E9F5A5E3B0E03B
:10206000E5E3F0E0908188E089278C93A5E3B0E078
:10207000E5E3F0E0908180E189278C938F8198855A
:10208000CC01A0E0B0E0BC01CD010E94A904DC01BC
:10209000CB01BC01CD0129813A814B815C810E9439
:1020A000F201DC01CB01BC01CD010E944900DC0141
:1020B000CB010E94560A69817A818B819C8120E044
:1020C00030E040E05FE30E94F201DC01CB01898354
:1020D0009A83AB83BC838D819E8101969E838D8381
:1020E00089859A8501969A87898789859A85853019
:1020F000910508F48ECFC0C01A8619866CC02E8553
:102100003F858B859C85F901E80FF91F8081882F19
:1021100090E09C012052304049855A85C901880FC2
:10212000991F880F991F820F931F840F951FFC0121
:10213000ED58FE4F80810E94060C8D819E81019694
:102140008F7390700097E9F5A5E3B0E0E5E3F0E068
:10215000908188E089278C93A5E3B0E0E5E3F0E087
:10216000908180E189278C938F819885CC01A0E0B4
:10217000B0E0BC01CD010E94A904DC01CB01BC018F
:10218000CD0129813A814B815C810E94F201DC0101
:10219000CB01BC01CD010E944900DC01CB010E94B2
:1021A000560A69817A818B819C8120E030E040E091
:1021B0005FE30E94F201DC01CB0189839A83AB8348
:1021C000BC838D819E8101969E838D8389859A85AE
:1021D00001969A87898789859A858530910508F4C3
:1021E0008ECF80E00E94060C8D819E8101969E8399
:1021F0008D838D819E818F7390700097E9F5A5E3A3
:10220000B0E0E5E3F0E0908188E089278C93A5E3D6
:10221000B0E0E5E3F0E0908180E189278C938F8145
:102220009885CC01A0E0B0E0BC01CD010E94A904DA
:10223000DC01CB01BC01CD0129813A814B815C815C
:102240000E94F201DC01CB01BC01CD010E944900DA
:10225000DC01CB010E94560A69817A818B819C81C5
:1022600020E030E040E05FE30E94F201DC01CB01BE
:1022700089839A83AB83BC838B859C8501969C87DD
:102280008B872E853F858B859C85F901E80FF91F8B
:102290008081882309F090CD80E40E94560A2F9611
:1022A0000FB6F894DEBF0FBECDBFCF91DF911F9167
:1022B0000F910895DF93CF93CDB7DEB70E94B60D8F
:1022C0000E945F0E20E630E080E0B9010E949A0E85
:1022D00020E630E085E0B9010E949A0EFFCF2F92F0
:1022E0003F924F925F926F927F928F929F92AF92A6
:1022F000BF92CF92DF92EF92FF920F931F93CF93F3
:10230000DF93CDB7DEB7CA1BDB0B0FB6F894DEBF89
:102310000FBECDBF09942A88398848885F846E84AF
:102320007D848C849B84AA84B984C884DF80EE80F9
:10233000FD800C811B81AA81B981CE0FD11D0FB602
:10234000F894DEBF0FBECDBFED010895F894FFCF26
:10235000467265713A384D487A200000000000004E
:102360000000000001020203030303040404040448
:102370000404040505050505050505050505050510
:1023800005050506060606060606060606060606F0
:1023900006060606060606060606060606060606DD
:1023A00006060607070707070707070707070707C0
:1023B00007070707070707070707070707070707AD
:1023C000070707070707070707070707070707079D
:1023D000070707070707070707070707070707078D
:1023E0000707070808080808080808080808080870
:1023F000080808080808080808080808080808085D
:10240000080808080808080808080808080808084C
:10241000080808080808080808080808080808083C
:10242000080808080808080808080808080808082C
:10243000080808080808080808080808080808081C
:10244000080808080808080808080808080808080C
:1024500008080808080808080808080808080808FC
:10246000080808000000000000005F0000000700EE
:102470000700147F147F14242A7F2A122313086470
:102480006236495522500005030000001C2241001D
:102490000041221C0014083E081408083E080800E9
:1024A0005030000008080808080060600000201094
:1024B0000804023E5149453E00427F4000426151BE
:1024C00049462141454B311814127F102745454597
:1024D000393C4A49493001710905033649494936B1
:1024E000064949291E00363600000056360000080D
:1024F000142241001414141414004122140802017F
:10250000510906324979413E7E1111117E7F4949B8
:1025100049363E414141227F4141221C7F49494980
:10252000417F090909013E4149497A7F0808087F2E
:1025300000417F41002040413F017F081422417F3C
:10254000404040407F020C027F7F0408107F3E41E4
:1025500041413E7F090909063E4151215E7F09192B
:102560002946464949493101017F01013F40404028
:102570003F1F2040201F3F4038403F631408146332
:1025800007087008076151494543007F4141000237
:10259000040810200041417F000402010204404071
:1025A000404040000102040020545454787F4844C5
:1025B00044383844444420384444487F38545454C0
:1025C00018087E0901020C5252523E7F080404781A
:1025D00000447D40002040443D007F10284400001E
:1025E000417F40007C041804787C08040478384457
:1025F0004444387C14141408081414187C7C08040F
:1026000004084854545420043F4440203C40402097
:102610007C1C2040201C3C4030403C442810284476
:102620000C5050503C4464544C4400083641000067
:10263000007F0000004136080010080810087846A6
:042640004146780097
:00000001FF
